:100000000EC020C01FC01EC01DC01CC01BC01AC017
:1000100019C018C017C016C015C014C013C01124D1
:100020001FBECFE5D2E0DEBFCDBF10E0A0E6B0E05E
:10003000E4EDF0E002C005900D92AC36B107D9F7BF
:1000400011D046C0DDCF28E030E091E043E018BA9F
:1000500080FF06C048BB859521503109C1F708953E
:1000600098BBF9CFEF92FF920F931F93CF93DF933B
:10007000CDB7DEB72C970FB6F894DEBF0FBECDBF5D
:100080008FE087BB8CE0E0E6F0E0DE0111960190A6
:100090000D928A95E1F78E010F5F1F4F7E018CE074
:1000A000E80EF11CF80181918F01CDDF0E151F05BF
:1000B000C9F790E080E02C960FB6F894DEBF0FBE33
:1000C000CDBFDF91CF911F910F91FF90EF900895D9
:0400D000F894FFCFD2
:0C00D40068656C6C6F20776F726C6400C4
:00000001FF
