:100000000EC020C01FC01EC01DC01CC01BC01AC017
:1000100019C018C017C016C015C014C013C01124D1
:100020001FBECFE5D2E0DEBFCDBF10E0A0E6B0E05E
:10003000EAEDF0E002C005900D92AC36B107D9F7B9
:1000400013D049C0DDCF28E030E091E043E018BA9A
:1000500080FF02C048BB01C098BB85952150310983
:1000600021153105A1F70895EF92FF920F931F9389
:10007000CF93DF93CDB7DEB72C970FB6F894DEBFE2
:100080000FBECDBF8FE087BB18BA8CE0E0E6F0E092
:10009000DE01119601900D928A95E1F78E010F5FB6
:1000A0001F4F7E0181E2E80EF11CF80181918F0162
:1000B000CADF0E151F05C9F780E090E02C960FB639
:1000C000F894DEBF0FBECDBFDF91CF911F910F918E
:0A00D000FF90EF900895F894FFCF21
:0C00DA0068656C6C6F20776F726C6400BE
:00000001FF
