:100000000EC020C01FC01EC01DC01CC01BC01AC017
:1000100019C018C017C016C015C014C013C01124D1
:100020001FBECFE5D2E0DEBFCDBF10E0A0E6B0E05E
:10003000E8EDF0E002C005900D92AC36B107D9F7BB
:1000400013D048C0DDCF28E030E094E045E018BA96
:1000500080FF02C048BB01C098BB85952150310983
:1000600021153105A1F70895EF92FF920F931F9389
:10007000CF93DF93CDB7DEB72C970FB6F894DEBFE2
:100080000FBECDBF87E087BB8CE0E0E6F0E0DE018D
:10009000119601900D928A95E1F78E010F5F1F4F27
:1000A0007E018CE0E80EF11CF80181918F01CBDF1D
:1000B0000E151F05C9F780E090E02C960FB6F89456
:1000C000DEBF0FBECDBFDF91CF911F910F91FF908B
:0800D000EF900895F894FFCFB2
:0C00D80068656C6C6F20776F726C6400C0
:00000001FF
